:100000000C942A000C9447000C9447000C94470071
:100010000C9447000C9447000C9447000C94470044
:100020000C9447000C9447000C9447000C94230256
:100030000C9447000C9447000C9447000C94470024
:100040000C9447000C9447000C9447000C94470014
:100050000C94470011241FBECFE5D8E0DEBFCDBF12
:1000600010E0A0E6B0E0ECEFF4E002C005900D92E5
:10007000A037B107D9F710E0A0E7B0E001C01D92AA
:10008000A637B107E1F70E9449000C947C020C945A
:100090000000FF920F931F93CF93DF9380E49CE9BE
:1000A0000197F1F7A59AAD9884B38C7F84BB85B393
:1000B000836085BBA29AAA98A39AAB98A49AAC989D
:1000C000A69AAE9AB898C0980E94E00080E00E947C
:1000D000D50184EF91E028EC30E0F9013197F1F798
:1000E0000197D9F781E060E00E9415010E940802A3
:1000F000FF2400E056C001E0C3E0D0E0B09B02C0A6
:10010000AE9A01C0AE980E94F400182F80E060E023
:100110000E943A0180E690E00E944D01812F90E01C
:1001200062E00E945B0180E00E9404028DE690E0A4
:100130000E944D011451103110F4AD9A01C0AD98D8
:100140000E945502882311F0AA9A04C00E945E0200
:100150008111AA980E940D028855924040F0FF201C
:1001600031F4AB9A0E941902FF24F3940BC00E9451
:100170000D02CC9738F081E0F81619F4AB980E9484
:100180001902FF240E9413028C179D0768F00023B8
:1001900059F4AC9A0E941E02CC52D14009F4ABCF64
:1001A00001E0CCE2D1E0AACF0E941302039708F449
:1001B000A5CF013019F4AC980E941E0200E09ECF3A
:1001C00080EC87B987E886B9089597B1907F97B991
:1001D00097B18770892B87B9369A349BFECF349AB2
:1001E00024B135B1C901089580E00E94E5008695EB
:1001F0008695089581B38F7081BB919A909822E083
:10020000929A822F8A95F1F780B39298922F9A95BD
:10021000F1F7929A90B39298922F9A95F1F787FD01
:10022000EFCF81B3806F81BB08950F931F93082F89
:10023000162F0E94FA009198112311F0909A01C094
:100240009098929A22E0822F8A95F1F782B3902FAC
:10025000907F8F70982B92BB92982A95F1F7929A83
:1002600082B30295007F8F70802B82BB92981F9182
:100270000F910895982F613011F480EC09C062301D
:1002800011F484E905C0633011F484ED01C080E805
:10029000890F60E00E9415010895CF93DF93EC0170
:1002A00004C0219661E00E94150188818823C9F766
:1002B000DF91CF910895EF92FF920F931F93DF93F9
:1002C000CF9300D000D00F92CDB7DEB79C01062FA0
:1002D000FE01319685E0DF011D928A95E9F710E075
:1002E0007F0110C0F701E10FF11DC9016AE070E064
:1002F0000E9468028083C9016AE070E00E9468027F
:100300009B011F5F2115310569F705C080E361E09E
:100310000E94150101500117C9F7F02EFA948F2D94
:10032000992787FD90958E010F5F1F4F080F191FAA
:1003300009C0F8018081805D61E00E941501FA9496
:1003400001501040F7FEF5CF0F900F900F900F90D7
:100350000F90CF91DF911F910F91FF90EF90089533
:1003600080E460E00E9415018EE061E00E941501CA
:1003700081E161E00E94150181E161E00E941501C7
:100380008EE061E00E94150180E061E00E941501AD
:1003900080E061E00E94150180E061E00E941501AB
:1003A00080E061E00E9415010895EF92FF921F9393
:1003B000182F80E69AEE0197F1F712BA8FEF81BB02
:1003C00082E060E00E94150188ECE82EF12CC70164
:1003D0000197F1F788E260E00E941501C7010197DB
:1003E000F1F7812F8C6060E00E94150180E29EE4AD
:1003F0000197F1F70E94B00180E060E00E943A01AD
:100400001F91FF90EF90089561E00E9415010895FB
:1004100081E083BF89BF7894089520917200309164
:100420007300C90108952091740030917500C901CD
:100430000895109273001092720008951092750042
:100440001092740008951F920F920FB60F9211240C
:100450002F938F939F9380917000909171000196DC
:10046000909371008093700083519A47B0F010927E
:10047000710010927000809172009091730001964B
:100480009093730080937200809174009091750036
:10049000019690937500809374009F918F912F9196
:1004A0000F900FBE0F901F901895989B02C080E090
:1004B000089583B38695809581700895989902C0B8
:1004C00080E0089583B390E09695879581700895B4
:1004D000AA1BBB1B51E107C0AA1FBB1FA617B7076A
:1004E00010F0A61BB70B881F991F5A95A9F7809586
:0C04F0009095BC01CD010895F894FFCF59
:1004FC0054656D70657261747572653A00430000E5
:00000001FF
